{
  "contractName": "Escrow",
  "abi": [
    {
      "inputs": [
        {
          "internalType": "address",
          "name": "_buyer",
          "type": "address"
        },
        {
          "internalType": "address",
          "name": "_seller",
          "type": "address"
        },
        {
          "internalType": "address",
          "name": "_arbiter",
          "type": "address"
        },
        {
          "internalType": "uint256",
          "name": "_dealAmount",
          "type": "uint256"
        },
        {
          "internalType": "string",
          "name": "_description",
          "type": "string"
        }
      ],
      "payable": false,
      "stateMutability": "nonpayable",
      "type": "constructor"
    },
    {
      "constant": true,
      "inputs": [],
      "name": "arbiter",
      "outputs": [
        {
          "internalType": "address",
          "name": "",
          "type": "address"
        }
      ],
      "payable": false,
      "stateMutability": "view",
      "type": "function"
    },
    {
      "constant": true,
      "inputs": [],
      "name": "buyer",
      "outputs": [
        {
          "internalType": "address",
          "name": "",
          "type": "address"
        }
      ],
      "payable": false,
      "stateMutability": "view",
      "type": "function"
    },
    {
      "constant": true,
      "inputs": [],
      "name": "currentState",
      "outputs": [
        {
          "internalType": "enum Escrow.State",
          "name": "",
          "type": "uint8"
        }
      ],
      "payable": false,
      "stateMutability": "view",
      "type": "function"
    },
    {
      "constant": true,
      "inputs": [],
      "name": "dealAmount",
      "outputs": [
        {
          "internalType": "uint256",
          "name": "",
          "type": "uint256"
        }
      ],
      "payable": false,
      "stateMutability": "view",
      "type": "function"
    },
    {
      "constant": true,
      "inputs": [],
      "name": "dealDescription",
      "outputs": [
        {
          "internalType": "string",
          "name": "",
          "type": "string"
        }
      ],
      "payable": false,
      "stateMutability": "view",
      "type": "function"
    },
    {
      "constant": true,
      "inputs": [],
      "name": "seller",
      "outputs": [
        {
          "internalType": "address",
          "name": "",
          "type": "address"
        }
      ],
      "payable": false,
      "stateMutability": "view",
      "type": "function"
    },
    {
      "constant": false,
      "inputs": [],
      "name": "deposit",
      "outputs": [],
      "payable": true,
      "stateMutability": "payable",
      "type": "function"
    },
    {
      "constant": false,
      "inputs": [],
      "name": "releaseFunds",
      "outputs": [],
      "payable": false,
      "stateMutability": "nonpayable",
      "type": "function"
    },
    {
      "constant": false,
      "inputs": [],
      "name": "refundFunds",
      "outputs": [],
      "payable": false,
      "stateMutability": "nonpayable",
      "type": "function"
    }
  ],
  "bytecode": "0x608060405234801561001057600080fd5b50604051610d80380380610d80833981810160405260a081101561003357600080fd5b81019080805190602001909291908051906020019092919080519060200190929190805190602001909291908051604051939291908464010000000082111561007b57600080fd5b8382019150602082018581111561009157600080fd5b82518660018202830111640100000000821117156100ae57600080fd5b8083526020830192505050908051906020019080838360005b838110156100e25780820151818401526020810190506100c7565b50505050905090810190601f16801561010f5780820380516001836020036101000a031916815260200191505b50604052505050846000806101000a81548173ffffffffffffffffffffffffffffffffffffffff021916908373ffffffffffffffffffffffffffffffffffffffff16021790555083600160006101000a81548173ffffffffffffffffffffffffffffffffffffffff021916908373ffffffffffffffffffffffffffffffffffffffff16021790555082600260006101000a81548173ffffffffffffffffffffffffffffffffffffffff021916908373ffffffffffffffffffffffffffffffffffffffff1602179055508160038190555080600490805190602001906101f5929190610224565b506000600560006101000a81548160ff0219169083600381111561021557fe5b021790555050505050506102c9565b828054600181600116156101000203166002900490600052602060002090601f016020900481019282601f1061026557805160ff1916838001178555610293565b82800160010185558215610293579182015b82811115610292578251825591602001919060010190610277565b5b5090506102a091906102a4565b5090565b6102c691905b808211156102c25760008160009055506001016102aa565b5090565b90565b610aa8806102d86000396000f3fe6080604052600436106100865760003560e01c80637150d8ae116100595780637150d8ae14610149578063ac491d2e146101a0578063d0e30db014610230578063df0a85891461023a578063fe25e00a1461026557610086565b806308551a531461008b5780630c3f6acf146100e257806349569b821461011b57806369d8957514610132575b600080fd5b34801561009757600080fd5b506100a06102bc565b604051808273ffffffffffffffffffffffffffffffffffffffff1673ffffffffffffffffffffffffffffffffffffffff16815260200191505060405180910390f35b3480156100ee57600080fd5b506100f76102e2565b6040518082600381111561010757fe5b60ff16815260200191505060405180910390f35b34801561012757600080fd5b506101306102f5565b005b34801561013e57600080fd5b5061014761051c565b005b34801561015557600080fd5b5061015e610743565b604051808273ffffffffffffffffffffffffffffffffffffffff1673ffffffffffffffffffffffffffffffffffffffff16815260200191505060405180910390f35b3480156101ac57600080fd5b506101b5610768565b6040518080602001828103825283818151815260200191508051906020019080838360005b838110156101f55780820151818401526020810190506101da565b50505050905090810190601f1680156102225780820380516001836020036101000a031916815260200191505b509250505060405180910390f35b610238610806565b005b34801561024657600080fd5b5061024f6109e3565b6040518082815260200191505060405180910390f35b34801561027157600080fd5b5061027a6109e9565b604051808273ffffffffffffffffffffffffffffffffffffffff1673ffffffffffffffffffffffffffffffffffffffff16815260200191505060405180910390f35b600160009054906101000a900473ffffffffffffffffffffffffffffffffffffffff1681565b600560009054906101000a900460ff1681565b600160009054906101000a900473ffffffffffffffffffffffffffffffffffffffff1673ffffffffffffffffffffffffffffffffffffffff163373ffffffffffffffffffffffffffffffffffffffff16148061039e5750600260009054906101000a900473ffffffffffffffffffffffffffffffffffffffff1673ffffffffffffffffffffffffffffffffffffffff163373ffffffffffffffffffffffffffffffffffffffff16145b6103f3576040517f08c379a0000000000000000000000000000000000000000000000000000000008152600401808060200182810382526021815260200180610a326021913960400191505060405180910390fd5b6001600381111561040057fe5b600560009054906101000a900460ff16600381111561041b57fe5b1461048e576040517f08c379a000000000000000000000000000000000000000000000000000000000815260040180806020018281038252601b8152602001807f4465616c206973206e6f7420696e2046756e646564207374617465000000000081525060200191505060405180910390fd5b6003600560006101000a81548160ff021916908360038111156104ad57fe5b02179055506000809054906101000a900473ffffffffffffffffffffffffffffffffffffffff1673ffffffffffffffffffffffffffffffffffffffff166108fc479081150290604051600060405180830381858888f19350505050158015610519573d6000803e3d6000fd5b50565b6000809054906101000a900473ffffffffffffffffffffffffffffffffffffffff1673ffffffffffffffffffffffffffffffffffffffff163373ffffffffffffffffffffffffffffffffffffffff1614806105c45750600260009054906101000a900473ffffffffffffffffffffffffffffffffffffffff1673ffffffffffffffffffffffffffffffffffffffff163373ffffffffffffffffffffffffffffffffffffffff16145b610619576040517f08c379a0000000000000000000000000000000000000000000000000000000008152600401808060200182810382526021815260200180610a536021913960400191505060405180910390fd5b6001600381111561062657fe5b600560009054906101000a900460ff16600381111561064157fe5b146106b4576040517f08c379a000000000000000000000000000000000000000000000000000000000815260040180806020018281038252601b8152602001807f4465616c206973206e6f7420696e2046756e646564207374617465000000000081525060200191505060405180910390fd5b6002600560006101000a81548160ff021916908360038111156106d357fe5b0217905550600160009054906101000a900473ffffffffffffffffffffffffffffffffffffffff1673ffffffffffffffffffffffffffffffffffffffff166108fc479081150290604051600060405180830381858888f19350505050158015610740573d6000803e3d6000fd5b50565b6000809054906101000a900473ffffffffffffffffffffffffffffffffffffffff1681565b60048054600181600116156101000203166002900480601f0160208091040260200160405190810160405280929190818152602001828054600181600116156101000203166002900480156107fe5780601f106107d3576101008083540402835291602001916107fe565b820191906000526020600020905b8154815290600101906020018083116107e157829003601f168201915b505050505081565b6000809054906101000a900473ffffffffffffffffffffffffffffffffffffffff1673ffffffffffffffffffffffffffffffffffffffff163373ffffffffffffffffffffffffffffffffffffffff16146108c8576040517f08c379a00000000000000000000000000000000000000000000000000000000081526004018080602001828103825260168152602001807f4f6e6c792062757965722063616e206465706f7369740000000000000000000081525060200191505060405180910390fd5b600060038111156108d557fe5b600560009054906101000a900460ff1660038111156108f057fe5b14610963576040517f08c379a000000000000000000000000000000000000000000000000000000000815260040180806020018281038252601c8152602001807f4465616c206973206e6f7420696e20437265617465642073746174650000000081525060200191505060405180910390fd5b60035434146109bd576040517f08c379a0000000000000000000000000000000000000000000000000000000008152600401808060200182810382526022815260200180610a106022913960400191505060405180910390fd5b6001600560006101000a81548160ff021916908360038111156109dc57fe5b0217905550565b60035481565b600260009054906101000a900473ffffffffffffffffffffffffffffffffffffffff168156fe4d757374206465706f73697420746865206578616374206465616c20616d6f756e744f6e6c792073656c6c6572206f7220617262697465722063616e20726566756e644f6e6c79206275796572206f7220617262697465722063616e2072656c65617365a265627a7a72315820dc5be8fa7091edf987ecfa1abfe01978c07dc638e8ba107d31c30a5dea3b26a564736f6c63430005100032",
  "source": "pragma solidity ^0.5.0;\r\n\r\ncontract Escrow {\r\n\r\n    // --- State Variables ---\r\n    address public buyer;\r\n    address public seller;\r\n    address public arbiter;\r\n    \r\n    // --- NEW VARIABLES ---\r\n    uint public dealAmount; // The agreed-upon price in Wei\r\n    string public dealDescription; // The details of the job\r\n\r\n    enum State { Created, Funded, Released, Refunded }\r\n    State public currentState;\r\n\r\n    // --- Constructor (UPDATED) ---\r\n    constructor(\r\n        address _buyer,\r\n        address _seller,\r\n        address _arbiter,\r\n        uint _dealAmount,\r\n        string memory _description\r\n    ) public {\r\n        buyer = _buyer;\r\n        seller = _seller;\r\n        arbiter = _arbiter;\r\n        dealAmount = _dealAmount; // Set the price\r\n        dealDescription = _description; // Set the job details\r\n        currentState = State.Created;\r\n    }\r\n\r\n    // --- Functions ---\r\n\r\n    // 1. Buyer deposits funds (UPDATED)\r\n    function deposit() public payable {\r\n        require(msg.sender == buyer, \"Only buyer can deposit\");\r\n        require(currentState == State.Created, \"Deal is not in Created state\");\r\n        \r\n        // --- THIS IS THE CRITICAL NEW CHECK ---\r\n        // The contract now ENFORCES the correct deposit amount\r\n        require(msg.value == dealAmount, \"Must deposit the exact deal amount\");\r\n        \r\n        currentState = State.Funded;\r\n    }\r\n\r\n    // 2. Release Funds (No change)\r\n    function releaseFunds() public {\r\n        require(msg.sender == buyer || msg.sender == arbiter, \"Only buyer or arbiter can release\");\r\n        require(currentState == State.Funded, \"Deal is not in Funded state\");\r\n        currentState = State.Released;\r\n        address(uint160(seller)).transfer(address(this).balance);\r\n    }\r\n\r\n    // 3. Refund Funds (No change)\r\n    function refundFunds() public {\r\n        require(msg.sender == seller || msg.sender == arbiter, \"Only seller or arbiter can refund\");\r\n        require(currentState == State.Funded, \"Deal is not in Funded state\");\r\n        currentState = State.Refunded;\r\n        address(uint160(buyer)).transfer(address(this).balance);\r\n    }\r\n}",
  "sourcePath": "E:\\Fast Lane\\sem-5\\Blockchain\\Assignment 3\\contracts\\Escrow.sol",
  "compiler": {
    "name": "solc",
    "version": "0.5.16+commit.9c3226ce.Emscripten.clang"
  },
  "schemaVersion": "3.4.16",
  "updatedAt": "2025-11-15T21:46:24.238Z",
  "devdoc": {
    "methods": {}
  },
  "userdoc": {
    "methods": {}
  }
}